:03000000020006F5
:03005F0002000399
:0300030002031FD6
:2000620075B57F75B00075B20375800175B3FF7590002290E6047480F00000000090E6046A
:200082007482F00000000090E6047484F00000000090E6047486F00000000090E60474883C
:2000A200F00000000090E604E4F0000000002290E6007412F090E60174C0F00000000090C7
:2000C200E60B7403F00000000090E619E4F00000000090E61BE4F0000000002290E61A74D8
:2000E20008F00000000090E609741FF00000000090E670E4F00000000090E6017403F0006C
:2001020000000090E60B7403F00000000075800222AE82AF8390E61274A2F000000000EEFE
:200122004FB40100E433C454F0FE90E618F00000000022AE82AF8390E61474E0F0000000CC
:2001420000EE4F600B90E61AE4F000000000800A90E61A7408F00000000090E6247402F00B
:200162000000000090E625E4F000000000220000000090E6497482F022AE82AF83000000C3
:2001820000EE035480FE90E64874064EF022AE82AF8390E698EFF0000000007F0090E69925
:2001A200EEF0000000002290E6A3E05404FFB40100E433FF3395E08F82F5832290E6A5E0D4
:2001C2005408FFB40100E433FF3395E08F82F5832285820A85830B85F00C7B007CF090E6A2
:2001E20090E0FA790090E691E0F87F0049F50DEF4AF50E7A007D00C3EA950DED950E502FE0
:20020200C3EA9508ED95095026EA250AF8ED350BF9AF0C8B828C83E0FEA3AB82AC8388829C
:2002220089838FF0EE12047E0ABA00CB0D80C8120170850D82850E8322AD82AE83AFF07B82
:20024200007CF879007A00C3E9950FEA951050218D828E838FF0120499F8A3AD82AE838B11
:20026200828C83E8F0A3AB82AC8309B900D90A80D6850F82851083020190AD82AE831204E2
:2002820099FFBF4402800BBF500122BF5302803B22227F007D007E008FB07B787C00EB24B8
:2002A200FFF9EC34FFFA89038A04E94A70F074402FFF0DBD00010EC3ED940AEE648094808F
:2002C20040D61200B19000010201351200DE75B0AA7E007F00E5B020E711E5B02354010301
:2002E2000354C0FD74AA4DF5B080EAE5B030E711E5B0235401030354C0FD74AA4DF5B080FD
:20030200EA0EBE00010FC3EE940AEF6480948040C475B0001200B1900001020135E4FEFF49
:20032200F51DF51EC007C0061200B1900001120113900001120135120062D006D007E4FAB7
:20034200FBF52BF52CC007C006C003C0021201A9E5828583F0D002D003D006D00745F0703B
:20036200030203F975080A75090090001375F040C007C006C003C0021201D38582298583FD
:200382002AD002D003D006D007751F53AC297D008C20851321851422C007C006C003C00274
:2003A2001201BEE5828583F0D002D003D006D00745F060E4750F0475100090001F75F040DF
:2003C200C007C006C003C00212023BD002D003D006D0070ABA00010B852911852A12900088
:2003E2001375F040C007C006C003C00212027CD002D003D006D0070EBE00010FBEA00FBF47
:20040200000C7E007F00051DE4B51D02051E74E8B51D077403B51E028003020347751F539D
:2004220090E6A3E0FD8D20AC2B8C218A047D008C22C007C006C003C0021201BEE582858388
:20044200F0D002D003D006D00745F060E4750F0475100090001F75F040C007C006C003C06E
:1C0462000212023BD002D003D006D007052BE4B52B02052CE4F51DF51E0203475F
:06003500E478FFF6D8FD9F
:200013007900E94400601B7A009004B9780175A000E493F2A308B8000205A0D9F4DAF275D6
:02003300A0FF2C
:1B047E0020F71130F6138883A88220F509F6A8837583002280FEF280F5F0227D
:20003B007800E84400600A790175A000E4F309D8FC7800E84400600C7900900001E4F0A3C3
:04005B00D8FCD9FAFA
:0D00060075812D1204B5E582600302000330
:1C04990020F71430F6148883A88220F507E6A88375830022E280F7E49322E02272
:0404B500758200222A
:00000001FF
