:03000000020006F5
:03005F0002000399
:0300030002026393
:2000620075B5FF75B00075B2FF75800075B3FF7590002290E6047480F00000000090E604EF
:200082007482F00000000090E6047484F00000000090E6047486F00000000090E60474883C
:2000A200F00000000090E604E4F0000000002290E6007412F090E60174C0F00000000090C7
:2000C200E60B7403F00000000090E619E4F00000000090E61BE4F0000000002290E60974E9
:2000E2001FF00000000090E6017403F00000000090E60B7403F00000000090E670E4F0006F
:2001020000000022AE82AF8390E61274A0F000000000EE4FB40100E433C454F0FE90E61830
:20012200F00000000022AE82AF8390E61474E0F000000000EE4FB40100E433C40354F8FE61
:2001420090E61AF00000000090E6247402F00000000090E625E4F0000000002290E6497459
:2001620082F00000000022AE82AF83EE035480FE90E64974064EF00000000022AE82AF83C9
:2001820090E698EFF0000000007F0090E699EEF0000000002290E6A3E05404FFB40100E4F9
:2001A20033FF3395E08F82F5832290E6A5E05408FFB40100E433FF3395E08F82F5832285BF
:2001C200820A85830B85F00C7B007CF090E690E0FA790090E691E0F87F0049F50DEF4AF5E6
:2001E2000E7A007D00C3EA950DED950E502FC3EA9508ED95095026EA250AF8ED350BF9AF69
:200202000C8B828C83E0FEA3AB82AC83888289838FF0EE1202E20ABA00CB0D80C802015E19
:20022200AD82AE83AFF07B007CF879007A00C3E9950FEA951050218D828E838FF01202FDDB
:20024200F8A3AD82AE838B828C83E8F0A3AB82AC8309B900D90A80D6850F82851083020182
:200262007E1200B1900001120106900001120128120197E5828583F045F0602B75080A7500
:20028200090090001175F0401201C11201ACE5828583F045F070F4750F04F51090031D75D0
:2002A200F08012022280C97E007F007C807D3EEC24FFFAED34FFFB8A048B05EA4B70F00EB4
:2002C200BE00010FC3EE94E8EF6480948340DC750F0475100090032275F08012022280902E
:0A031D004F4B4F4B00424144530088
:06003500E478FFF6D8FD9F
:200013007900E94400601B7A00900327780175A000E493F2A308B8000205A0D9F4DAF27569
:02003300A0FF2C
:1B02E20020F71130F6138883A88220F509F6A8837583002280FEF280F5F0221B
:20003B007800E84400600A790175A000E4F309D8FC7800E84400600C7900900001E4F0A3C3
:04005B00D8FCD9FAFA
:0D00060075811B120319E5826003020003DF
:1C02FD0020F71430F6148883A88220F507E6A88375830022E280F7E49322E02210
:0403190075820022C7
:00000001FF
