:03000000020006F5
:03005F0002000399
:030003000202B343
:2000620075B5FF75B00075B2FF75800175B3FF7590002290E6047480F00000000090E604EE
:200082007482F00000000090E6047484F00000000090E6047486F00000000090E60474883C
:2000A200F00000000090E604E4F0000000002290E6007412F090E60174C0F00000000090C7
:2000C200E60B7403F00000000090E619E4F00000000090E61BE4F000000000E4F508F5091F
:2000E2002290E609741FF00000000090E6017403F00000000090E60B7403F0000000009084
:20010200E670E4F00000000075080175090022AE82AF8390E61274A2F000000000EE4FB4B4
:200122000100E433C454F0FE90E618F000000000120174120174120174020174AE82AF83B3
:2001420090E61474E0F000000000EE4FB40100E433C40354F8FE90E61AF00000000090E6BF
:20016200247402F00000000090E625E4F00000000022E5084509701590E6917482F00000B5
:20018200000090E6497482F000000000227401B50806E4B5090280012290E6497482F00072
:2001A20000000022AE82AF83EE035480FE90E64874064EF00000000022AE82AF8390E698EE
:2001C200EFF0000000007F0090E699EEF0000000002290E6A3E05404FFB40100E433FF3362
:2001E20095E08F82F5832290E6A5E05408FFB40100E433FF3395E08F82F5832285820C85D1
:20020200830D85F00E7B007CF090E690E0FA790090E691E0F87F0049F50FEF4AF5107A0026
:200222007D00C3EA950FED9510502FC3EA950AED950B5026EA250CF8ED350DF9AF0E8B8289
:200242008C83E0FEA3AB82AC83888289838FF0EE1203F00ABA00CB0D80C812017412017436
:20026200120174120174120174850F8285108322AD82AE83AFF07B007CF879007A00C3E90A
:200282009511EA951250218D828E838FF012040BF8A3AD82AE838B828C83E8F0A3AB82AC89
:2002A2008309B900D90A80D68511828512830201BBE4FEFFF51DF51EC007C0061200B190E8
:2002C200000112011190000112013E120062D006D007E4FAFBF52BF52CC007C006C003C0CA
:2002E200021201D4E5828583F0D002D003D006D00745F06074750A0A750B0090001375F048
:2003020040C007C006C003C0021201FE85822985832AD002D003D006D007751F53AC297D8B
:20032200008C20851321851422C007C006C003C0021201E9E5828583F0D002D003D006D0E3
:200342000745F060E475110475120090001F75F040C007C006C003C002120272D002D00379
:20036200D006D0070ABA00010B0EBE00010FBEA00FBF000C7E007F00051DE4B51D02051EF0
:2003820074E8B51D077403B51E0280030202DB751F5390E6A3E0FD8D20AC2B8C218A047D5F
:2003A200008C22C007C006C003C0021201E9E5828583F0D002D003D006D00745F060E475E0
:2003C200110475120090001F75F040C007C006C003C002120272D002D003D006D007052B11
:0E03E200E4B52B02052CE4F51DF51E0202DB2E
:06003500E478FFF6D8FD9F
:200013007900E94400601B7A0090042B780175A000E493F2A308B8000205A0D9F4DAF27564
:02003300A0FF2C
:1B03F00020F71130F6138883A88220F509F6A8837583002280FEF280F5F0220C
:20003B007800E84400600A790175A000E4F309D8FC7800E84400600C7900900001E4F0A3C3
:04005B00D8FCD9FAFA
:0D00060075812D120427E5826003020003BE
:1C040B0020F71430F6148883A88220F507E6A88375830022E280F7E49322E02200
:0404270075820022B8
:00000001FF
