:03000000020006F5
:03005F0002000399
:03000300020322D3
:2000620075B57F75B00075B20375800175B3FF7590002290E6047480F00000000090E6046A
:200082007482F00000000090E6047484F00000000090E6047486F00000000090E60474883C
:2000A200F00000000090E604E4F0000000002290E6007412F090E60174C0F00000000090C7
:2000C200E60B7403F00000000090E619E4F00000000090E61BE4F000000000758001229056
:2000E200E61A7408F00000000090E609741FF00000000090E670E4F00000000090E60174EB
:2001020003F00000000090E60B7403F00000000075800222AE82AF8390E61274A2F00000F9
:200122000000EE4FB40100E433C454F0FE90E618F00000000022AE82AF8390E61474E0F0DE
:2001420000000000EE4F600B90E61AE4F000000000800A90E61A7408F00000000090E62471
:200162007402F00000000090E625E4F000000000220000000090E6497482F022AE82AF835D
:2001820000000000EE035480FE90E64874064EF022AE82AF8390E698EFF0000000007F0034
:2001A20090E699EEF0000000002290E6A3E05404FFB40100E433FF3395E08F82F583229030
:2001C200E6A5E05408FFB40100E433FF3395E08F82F5832285820A85830B85F00C7B007C9D
:2001E200F090E690E0FA790090E691E0F87F0049F50DEF4AF50E7A007D00C3EA950DED9507
:200202000E502FC3EA9508ED95095026EA250AF8ED350BF9AF0C8B828C83E0FEA3AB82AC9C
:2002220083888289838FF0EE1204810ABA00CB0D80C8120173850D82850E8322AD82AE8309
:20024200AFF07B007CF879007A00C3E9950FEA951050218D828E838FF012049CF8A3AD82B0
:20026200AE838B828C83E8F0A3AB82AC8309B900D90A80D6850F82851083020193AD82AEBC
:200282008312049CFFBF4402800BBF500122BF5302803B22227F007D007E008FB07B787C2B
:2002A20000EB24FFF9EC34FFFA89038A04E94A70F074402FFF0DBD00010EC3ED940AEE6414
:2002C20080948040D61200B19000010201381200E175B0AA7E007F00E5B020E711E5B023BF
:2002E2005401030354C0FD74AA4DF5B080EAE5B030E711E5B0235401030354C0FD74AA4DCA
:20030200F5B080EA0EBE00010FC3EE940AEF6480948040C475B0001200B190000102013802
:20032200E4FEFFF51DF51EC007C0061200B1900001120116900001120138120062D006D0B5
:2003420007E4FAFBF52BF52CC007C006C003C0021201ACE5828583F0D002D003D006D007F8
:2003620045F070030203FC75080A75090090001375F040C007C006C003C0021201D6858283
:200382002985832AD002D003D006D007751F53AC297D008C20851321851422C007C006C008
:2003A20003C0021201C1E5828583F0D002D003D006D00745F060E4750F0475100090001FBC
:2003C20075F040C007C006C003C00212023ED002D003D006D0070ABA00010B852911852A82
:2003E2001290001375F040C007C006C003C00212027FD002D003D006D0070EBE00010FBE10
:20040200A00FBF000C7E007F00051DE4B51D02051E74E8B51D077403B51E02800302034A13
:20042200751F5390E6A3E0FD8D20AC2B8C218A047D008C22C007C006C003C0021201C1E528
:20044200828583F0D002D003D006D00745F060E4750F0475100090001F75F040C007C00667
:1F046200C003C00212023ED002D003D006D007052BE4B52B02052CE4F51DF51E02034AD3
:06003500E478FFF6D8FD9F
:200013007900E94400601B7A009004BC780175A000E493F2A308B8000205A0D9F4DAF275D3
:02003300A0FF2C
:1B04810020F71130F6138883A88220F509F6A8837583002280FEF280F5F0227A
:20003B007800E84400600A790175A000E4F309D8FC7800E84400600C7900900001E4F0A3C3
:04005B00D8FCD9FAFA
:0D00060075812D1204B8E58260030200032D
:1C049C0020F71430F6148883A88220F507E6A88375830022E280F7E49322E0226F
:0404B8007582002227
:00000001FF
