:03000000020006F5
:03005F0002000399
:0300030002027185
:2000620075B5FF75B00075B2FF75800175B3FF7590002290E6047480F00000000090E604EE
:200082007482F00000000090E6047484F00000000090E6047486F00000000090E60474883C
:2000A200F00000000090E604E4F0000000002290E6007412F090E60174C0F00000000090C7
:2000C200E60B7403F00000000090E619E4F00000000090E61BE4F0000000002290E60974E9
:2000E2001FF00000000090E6017403F00000000090E60B7403F00000000090E670E4F0006F
:2001020000000022AE82AF8390E61274A2F000000000EE4FB40100E433C454F0FE90E6182E
:20012200F00000000022AE82AF8390E61474E0F000000000EE4FB40100E433C40354F8FE61
:2001420090E61AF00000000090E6247402F00000000090E625E4F00000000022000000008C
:2001620090E6497482F022AE82AF83EE035480FE90E64874064EF00000000022AE82AF8397
:2001820090E698EFF0000000007F0090E699EEF0000000002290E6A3E05404FFB40100E4F9
:2001A20033FF3395E08F82F5832290E6A5E05408FFB40100E433FF3395E08F82F5832285BF
:2001C200822685832785F0287B007CF090E690E0FA790090E691E0F87F0049F529EF4AF576
:2001E2002A7A007D00C3EA9529ED952A502FC3EA9524ED95255026EA2526F8ED3527F9AFA5
:20020200288B828C83E0FEA3AB82AC83888289838FF0EE1203B10ABA00CB0D80C80000008E
:200222000090E6497482F0852982852A8322AD82AE83AFF07B007CF879007A00C3E9950869
:20024200EA950950218D828E838FF01203CCF8A3AD82AE838B828C83E8F0A3AB82AC83092C
:20026200B900D90A80D685088285098302017EE4FEFFF514F515C007C0061200B190000114
:20028200120106900001120128120062120075D006D007E4FAFBF522F523C007C006C00377
:2002A200C002120197E5828583F0D002D003D006D00745F0607475240A75250090000A75CA
:2002C200F040C007C006C003C0021201C1858220858321D002D003D006D007751653AC20BA
:2002E2007D008C17850A18850B19C007C006C003C0021201ACE5828583F0D002D003D006E1
:20030200D00745F060E475080475090090001675F040C007C006C003C002120230D002D049
:2003220003D006D0070ABA00010B0EBE00010FBEA00FBF000C7E007F000514E4B51402055D
:200342001574E8B514077403B51502800302029C75165390E6A3E0FD8D17AC228C188A047C
:200362007D008C19C007C006C003C0021201ACE5828583F0D002D003D006D00745F060E45E
:2003820075080475090090001675F040C007C006C003C002120230D002D003D006D0070564
:0F03A20022E4B522020523E4F514F51502029CAE
:06003500E478FFF6D8FD9F
:200013007900E94400601B7A009003EC780175A000E493F2A308B8000205A0D9F4DAF275A4
:02003300A0FF2C
:1B03B10020F71130F6138883A88220F509F6A8837583002280FEF280F5F0224B
:20003B007800E84400600A790175A000E4F309D8FC7800E84400600C7900900001E4F0A3C3
:04005B00D8FCD9FAFA
:0D00060075812A1203E8E582600302000301
:1C03CC0020F71430F6148883A88220F507E6A88375830022E280F7E49322E02240
:0403E80075820022F8
:00000001FF
