:03000000020006F5
:03005F0002000399
:0300030002026E88
:2000620075B5FF75B00075B2FF75800075B3FF7590002290E6047480F00000000090E604EF
:200082007482F00000000090E6047484F00000000090E6047486F00000000090E60474883C
:2000A200F00000000090E604E4F0000000002290E6007412F090E60174C0F00000000090C7
:2000C200E60B7403F00000000090E619E4F00000000090E61BE4F0000000002290E60974E9
:2000E2001FF00000000090E6017403F00000000090E60B7403F00000000090E670E4F0006F
:2001020000000022AE82AF8390E61274A0F000000000EE4FB40100E433C454F0FE90E61830
:20012200F000000000120169120169120169020169AE82AF8390E61474E0F000000000EECF
:200142004FB40100E433C40354F8FE90E61AF00000000090E6247402F00000000090E62556
:20016200E4F0000000002290E6497482F00000000022AE82AF83EE035480FE90E648740663
:200182004EF00000000022AE82AF8390E698EFF0000000007F0090E699EEF0000000002220
:2001A20090E6A3E05404FFB40100E433FF3395E08F82F5832290E6A5E05408FFB40100E4E0
:2001C20033FF3395E08F82F5832285820A85830B85F00C7B007CF090E690E0FA790090E63D
:2001E20091E0F87F0049F50DEF4AF50E7A007D00C3EA950DED950E502FC3EA9508ED950964
:200202005026EA250AF8ED350BF9AF0C8B828C83E0FEA3AB82AC83888289838FF0EE1203E3
:200222006F0ABA00CB0D80C8020169AD82AE83AFF07B007CF879007A00C3E9950FEA95103D
:2002420050218D828E838FF012038AF8A3AD82AE838B828C83E8F0A3AB82AC8309B900D964
:200262000A80D6850F828510830201891200B19000011201069000011201337E007F007CA5
:20028200007D00C007C006C005C0041201A2E5828583F0D004D005D006D00745F0606275F3
:2002A200080A75090090001175F040C007C006C005C0041201CCD004D005D006D007C00754
:2002C200C006C005C0041201B7E5828583F0D004D005D006D00745F060E4750F04751000C8
:2002E20090001175F040C007C006C005C00412022DD004D005D006D0070EBE00010F020229
:2003020085E4F51DF51E751B80751C3EE51B24FFFAE51C34FFFB8A1B8B1CEA4B70EE051D21
:20032200E4B51D02051EC3E51D94E8E51E6480948340D3751F5390E6A3E0FB8B208C028AF0
:20034200218E027B008A22750F048B1090001F75F040C007C006C005C00412022DD004D051
:0D03620005D006D0070CBC00010D0202857D
:06003500E478FFF6D8FD9F
:200013007900E94400601B7A009003AA780175A000E493F2A308B8000205A0D9F4DAF275E6
:02003300A0FF2C
:1B036F0020F71130F6138883A88220F509F6A8837583002280FEF280F5F0228D
:20003B007800E84400600A790175A000E4F309D8FC7800E84400600C7900900001E4F0A3C3
:04005B00D8FCD9FAFA
:0D0006007581291203A6E582600302000344
:1C038A0020F71430F6148883A88220F507E6A88375830022E280F7E49322E02282
:0403A600758200223A
:00000001FF
