:03000000020006F5
:03005F0002000399
:03000300020507EC
:2000620075B5AA75B00075B20375800175B3FF7590002290E6047480F00000000090E6043F
:200082007482F00000000090E6047484F00000000090E6047486F00000000090E60474883C
:2000A200F00000000090E604E4F0000000002290E6007412F090E60174C0F00000000090C7
:2000C200E60B7403F00000000090E619E4F00000000090E61BE4F000000000758001229056
:2000E200E61A7408F00000000090E609741FF00000000090E670E4F00000000090E60174EB
:2001020003F00000000090E60B7403F00000000075800222AE82AF8390E61274A2F00000F9
:200122000000EE4FB40100E433C454F0FE90E618F00000000022AE82AF8390E61474E0F0DE
:2001420000000000EE4F600B90E61AE4F000000000800A90E61A7408F00000000090E62471
:200162007402F00000000090E625E4F000000000220000000090E6497482F022AE82AF835D
:2001820000000000EE035480FE90E64874064EF022AE82AF8390E698EFF0000000007F0034
:2001A20090E699EEF0000000002290E6A3E05404FFB40100E433FF3395E08F82F583229030
:2001C200E6A5E05408FFB40100E433FF3395E08F82F5832285820A85830B85F00C7B007C9D
:2001E200F090E690E0FA790090E691E0F87F0049F50DEF4AF50E7A007D00C3EA950DED9507
:200202000E502FC3EA9508ED95095026EA250AF8ED350BF9AF0C8B828C83E0FEA3AB82AC9C
:2002220083888289838FF0EE1206660ABA00CB0D80C8120173850D82850E8322AD82AE8322
:20024200AFF07B007CF879007A00C3E9950FEA951050218D828E838FF0120681F8A3AD82C9
:20026200AE838B828C83E8F0A3AB82AC8309B900D90A80D6850F8285108302019390E6F52E
:2002820074FFF000000000000000000000000090E6487406F0221200757EE87F03EE24FF2F
:2002A200FCEF34FFFD8C068D07EC4D70F0E5BB30E7FB00000000000000000000000090E63A
:2002C200D07428F000000000000000000000000090E6D1E4F075BB0622AF827E00EE75F04B
:2002E20007A4FCADF024A1F582ED3406F583E493FBB5070280080EBE0CE375820022EC2441
:20030200A1FCED3406FD74062CF582E43DF583E49390E601F075AF07759DE4759E008C8244
:200322008D83A3E49390E67CF08C828D83A3A3E49390E67CF07401F0E4F0F0F0F0F08C82EB
:200342008D83A3A3A39390E67CF08C828D83A3A3A3A3E49390E67CF07401F0E4F0F0F0F021
:20036200F08C828D83A3A3A3A3A39390E67CF07411F0F0E4F0F0F0F0F0F0F0F0F0F0F0F040
:20038200F07F0090E67CE4F00FBF600040F5758201227E007F0090E6C2E4F090E6C3748073
:2003A200F090E6C0E4F090E6F4F090E6E204F090E61A7408F00000000090E60174C2F00002
:2003C20000000090E60B7403F000000000758003C007C00612027F7582011202DB12029888
:2003E200D006D007E4F511F512E4F513F5148E008F017C007D008802890308B80001098AE7
:20040200B00CBC00010DC3EC940AED6480948040E5880689070513E4B513020514C3E51345
:2004220094B0E5146480948440C40511E4B511020512C3E51194E8E5126480948340AA1281
:20044200027F7E007F00900000C007C00612017ED006D0070EBE00010FC3EE9404EF6480C9
:20046200948040E21200B190000112013875800122AD82AE83120681FFBF44028011BF47F9
:2004820003020504BF500122BF5302803B22227F007D007E008FB07B787C00EB24FFF9ECEC
:2004A20034FFFA89038A04E94A70F074402FFF0DBD00010EC3ED94E8EE6480948340D61268
:2004C20000B19000010201381200E175B0A07E007F00E5B020E00575B0A080F6E5B030E06E
:2004E2000575B0A280F60EBE00010FC3EE9401EF6480948040DC75B0001200B19000010218
:200502000138020394E4FEFFF521F522C007C0061200B19000011201169000011201381201
:200522000062D006D007E4FAFBF52FF530C007C006C003C0021201ACE5828583F0D002D0B6
:2005420003D006D00745F070030205E175080A75090090001775F040C007C006C003C002F6
:200562001201D685822D85832ED002D003D006D007752353AC2D7D008C248517258518265F
:20058200C007C006C003C0021201C1E5828583F0D002D003D006D00745F060E4750F04754C
:2005A200100090002375F040C007C006C003C00212023ED002D003D006D0070ABA00010B4B
:2005C200852D15852E1690001775F040C007C006C003C002120473D002D003D006D0070E42
:2005E200BE00010FBEA00FBF000C7E007F000521E4B52102052274E8B521077403B5220264
:20060200800302052F75235390E6A3E0FD8D24AC2F8C258A047D008C26C007C006C003C034
:20062200021201C1E5828583F0D002D003D006D00745F060E4750F0475100090002375F093
:2006420040C007C006C003C00212023ED002D003D006D007052FE4B52F020530E4F521F580
:040662002202052F3C
:2006A100308000030000EA1E8000030000AA180100020110CA100101020010CA0C0201025C
:2006C1000010CA080302020010CA040605020010CA020C0B020010CA011817020010CA3238
:1406E100302F020010CA147877020010CA0AF0EF020010CA26
:06003500E478FFF6D8FD9F
:200013007900E94400601B7A009006F5780175A000E493F2A308B8000205A0D9F4DAF27598
:02003300A0FF2C
:1B06660020F71130F6138883A88220F509F6A8837583002280FEF280F5F02293
:20003B007800E84400600A790175A000E4F309D8FC7800E84400600C7900900001E4F0A3C3
:04005B00D8FCD9FAFA
:0D00060075813112069DE582600302000342
:1C06810020F71430F6148883A88220F507E6A88375830022E280F7E49322E02288
:04069D007582002240
:00000001FF
