:03000000020006F5
:03005F0002000399
:0300030002026A8C
:2000620075B5FF75B00075B2FF75800175B3FF7590002290E6047480F00000000090E604EE
:200082007482F00000000090E6047484F00000000090E6047486F00000000090E60474883C
:2000A200F00000000090E604E4F0000000002290E6007412F090E60174C0F00000000090C7
:2000C200E60B7403F00000000090E619E4F00000000090E61BE4F0000000002290E60974E9
:2000E2001FF00000000090E6017403F00000000090E60B7403F00000000090E670E4F0006F
:2001020000000022AE82AF8390E61274A2F000000000EE4FB40100E433C454F0FE90E6182E
:20012200F00000000022AE82AF8390E61474E0F000000000EE4FB40100E433C40354F8FE61
:2001420090E61AF00000000090E6247402F00000000090E625E4F00000000022000000008C
:2001620090E6497482F022AE82AF83EE035480FE90E64874064EF00000000022AE82AF8397
:2001820090E698EFF0000000007F0090E699EEF0000000002290E6A3E05404FFB40100E4F9
:2001A20033FF3395E08F82F5832290E6A5E05408FFB40100E433FF3395E08F82F5832285BF
:2001C200820A85830B85F00C7B007CF090E690E0FA790090E691E0F87F0049F50DEF4AF5E6
:2001E2000E7A007D00C3EA950DED950E502FC3EA9508ED95095026EA250AF8ED350BF9AF69
:200202000C8B828C83E0FEA3AB82AC83888289838FF0EE1203AA0ABA00CB0D80C812015E40
:20022200850D82850E8322AD82AE83AFF07B007CF879007A00C3E9950FEA951050218D8230
:200242008E838FF01203C5F8A3AD82AE838B828C83E8F0A3AB82AC8309B900D90A80D685C4
:200262000F8285108302017EE4FEFFF51BF51CC007C0061200B190000112010690000112B3
:200282000128120062120075D006D007E4FAFBF529F52AC007C006C003C002120197E58252
:2002A2008583F0D002D003D006D00745F0607475080A75090090001175F040C007C006C051
:2002C20003C0021201C1858227858328D002D003D006D007751D53AC277D008C1E85111F3F
:2002E200851220C007C006C003C0021201ACE5828583F0D002D003D006D00745F060E475D5
:200302000F0475100090001D75F040C007C006C003C002120229D002D003D006D0070ABA8C
:2003220000010B0EBE00010FBEA00FBF000C7E007F00051BE4B51B02051C74E8B51B077400
:2003420003B51C028003020295751D5390E6A3E0FD8D1EAC298C1F8A047D008C20C007C065
:2003620006C003C0021201ACE5828583F0D002D003D006D00745F060E4750F04751000906A
:20038200001D75F040C007C006C003C002120229D002D003D006D0070529E4B52902052AD7
:0803A200E4F51BF51C020295B5
:06003500E478FFF6D8FD9F
:200013007900E94400601B7A009003E5780175A000E493F2A308B8000205A0D9F4DAF275AB
:02003300A0FF2C
:1B03AA0020F71130F6138883A88220F509F6A8837583002280FEF280F5F02252
:20003B007800E84400600A790175A000E4F309D8FC7800E84400600C7900900001E4F0A3C3
:04005B00D8FCD9FAFA
:0D00060075812B1203E1E582600302000307
:1C03C50020F71430F6148883A88220F507E6A88375830022E280F7E49322E02247
:0403E10075820022FF
:00000001FF
