:03000000020006F5
:03005F0002000399
:0300030002066191
:2000620075B5AA75B00075B20375800175B3FF7590002290E6047480F00000000090E6043F
:200082007482F00000000090E6047484F00000000090E6047486F00000000090E60474883C
:2000A200F00000000090E604E4F0000000002290E6007412F090E60174C0F00000000090C7
:2000C200E60B7403F00000000090E619E4F00000000090E61BE4F000000000758001229056
:2000E200E61A7408F00000000090E609741FF00000000090E670E4F00000000090E60174EB
:2001020003F00000000090E60B7403F00000000075800222AE82AF8390E61274A2F00000F9
:200122000000EE4FB40100E433C454F0FE90E618F00000000022AE82AF8390E61474E0F0DE
:2001420000000000EE4F600B90E61AE4F000000000800A90E61A7408F00000000090E62471
:200162007402F00000000090E625E4F000000000220000000090E6497482F022AE82AF835D
:2001820000000000EE035480FE90E64874064EF022AE82AF8390E698EFF0000000007F0034
:2001A20090E699EEF0000000002290E6A3E05404FFB40100E433FF3395E08F82F583229030
:2001C200E6A5E05408FFB40100E433FF3395E08F82F5832285820A85830B85F00C7B007C9D
:2001E200F090E690E0FA790090E691E0F87F0049F50DEF4AF50E7A007D00C3EA950DED9507
:200202000E502FC3EA9508ED95095026EA250AF8ED350BF9AF0C8B828C83E0FEA3AB82AC9C
:2002220083888289838FF0EE1207C00ABA00CB0D80C8120173850D82850E8322AD82AE83C7
:20024200AFF07B007CF879007A00C3E9950FEA951050218D828E838FF01207DBF8A3AD826E
:20026200AE838B828C83E8F0A3AB82AC8309B900D90A80D6850F8285108302019390E6F52E
:2002820074FFF000000000000000000000000090E6487406F0221200757EE87F03EE24FF2F
:2002A200FCEF34FFFD8C068D07EC4D70F0E5BB30E7FB00000000000000000000000090E63A
:2002C200D07428F000000000000000000000000090E6D1E4F075BB0622AF827E00EE75F04B
:2002E20007A4FCADF024FBF582ED3407F583E493FBB5070280080EBE0CE375820022EC24E6
:20030200FBFCED3407FD74062CF582E43DF583E49390E601F075AF07759DE4759E008C82E9
:200322008D83A3E49390E67CF08C828D83A3A3E49390E67CF07401F0E4F0F0F0F0F08C82EB
:200342008D83A3A3A39390E67CF08C828D83A3A3A3A3E49390E67CF07401F0E4F0F0F0F021
:20036200F08C828D83A3A3A3A3A39390E67CF07411F0F0E4F0F0F0F0F0F0F0F0F0F0F0F040
:20038200F07F0090E67CE4F00FBF600040F57582012275AF07759DE4759E0090E67C740609
:2003A200F014F07403F023F014F07403F0E4F0F07402F0E4F004F0E4F0F004F0E4F0F07480
:2003C20030F004F0F004F004F0F0E4F0F0F0F0F0F0F0F0F0F07E007F0090E67CE4F00EBE6C
:2003E20000010FC3EE9460EF6480948040EB75820122AE82AF837C007D00C3EC9EED6480A1
:200402008FF063F08095F0501BE5B020E00575B0A080F6E5B030E00575B0A280F60CBC0014
:20042200D90D80D62290E6C2E4F090E6C37480F090E6C0E4F090E6F4F090E6E204F090E60D
:200442001A7408F00000000090E60174CAF00000000090E60B7403F000000000758003127D
:20046200027F12039412029875B0A09000641203F490E61AE4F00000000090039C1203F446
:200482009000641203F490E61A7408F0000000009000641203F490E61AE4F0000000009070
:2004A20003381203F49000C81203F490E61A7408F0000000009000641203F490E61AE4F038
:2004C200000000009002D41203F490012C1203F490E61A7408F0000000009000641203F4EC
:2004E20090E61AE4F0000000009002701203F49001901203F490E61A7408F00000000090D5
:2005020000641203F490E61AE4F00000000090020C1203F49001F41203F490E61A7408F0D7
:20052200000000009000641203F490E61AE4F0000000009001A81203F49002581203F49093
:20054200E61A7408F0000000009000641203F490E61AE4F0000000009001441203F490025C
:20056200BC1203F490E61A7408F0000000009000641203F490E61AE4F0000000009000E0E7
:200582001203F49003201203F490E61A7408F0000000009000641203F490E61AE4F0000037
:2005A200000090007C1203F49003841203F490E61A7408F00000000075B00012027F7E00D2
:2005C2007F00900000C007C00612017ED006D0070EBE00010FC3EE9404EF6480948040E211
:2005E2001200B190000112013875800122AD82AE831207DBFFBF44028010BF4702805CBFB7
:2006020050028005BF5357803A227F007D007E008FB07B787C00EB24FFF9EC34FFFA8903E8
:200622008A04E94A70F074402FFF0DBD00010EC3ED94E8EE6480948340D61200B19000015D
:200642000201381200E175B0A09000011203F475B0001200B190000102013802042722E424
:20066200FEFFF51DF51EC007C0061200B1900001120116900001120138120062D006D0074F
:20068200E4FAFBF52BF52CC007C006C003C0021201ACE5828583F0D002D003D006D0074577
:2006A200F0700302073B75080A75090090001375F040C007C006C003C0021201D685822919
:2006C20085832AD002D003D006D007751F53AC297D008C20851321851422C007C006C003EB
:2006E200C0021201C1E5828583F0D002D003D006D00745F060E4750F0475100090001F7507
:20070200F040C007C006C003C00212023ED002D003D006D0070ABA00010B852911852A12A1
:2007220090001375F040C007C006C003C0021205EFD002D003D006D0070EBE00010FBEA0CB
:200742000FBF000C7E007F00051DE4B51D02051E74E8B51D077403B51E02800302068975B9
:200762001F5390E6A3E0FD8D20AC2B8C218A047D008C22C007C006C003C0021201C1E582D8
:200782008583F0D002D003D006D00745F060E4750F0475100090001F75F040C007C006C0E6
:1E07A20003C00212023ED002D003D006D007052BE4B52B02052CE4F51DF51E0206890F
:2007FB00308000030000EA1E8000030000AA180100020110CA100101020010CA0C02010201
:20081B000010CA080302020010CA040605020010CA020C0B020010CA011817020010CA32DC
:14083B00302F020010CA147877020010CA0AF0EF020010CACA
:06003500E478FFF6D8FD9F
:200013007900E94400601B7A0090084F780175A000E493F2A308B8000205A0D9F4DAF2753C
:02003300A0FF2C
:1B07C00020F71130F6138883A88220F509F6A8837583002280FEF280F5F02238
:20003B007800E84400600A790175A000E4F309D8FC7800E84400600C7900900001E4F0A3C3
:04005B00D8FCD9FAFA
:0D00060075812D1207F7E5826003020003EB
:1C07DB0020F71430F6148883A88220F507E6A88375830022E280F7E49322E0222D
:0407F70075820022E5
:00000001FF
