:03000000020006F5
:03005F0002000399
:030003000202AE48
:2000620075B5FF75B00075B2FF75800175B3FF7590002290E6047480F00000000090E604EE
:200082007482F00000000090E6047484F00000000090E6047486F00000000090E60474883C
:2000A200F00000000090E604E4F0000000002290E6007412F090E60174C0F00000000090C7
:2000C200E60B7403F00000000090E619E4F00000000090E61BE4F000000000E4F508F5091F
:2000E2002290E609741FF00000000090E6017403F00000000090E60B7403F0000000009084
:20010200E670E4F00000000075080175090022AE82AF8390E61274A2F000000000EE4FB4B4
:200122000100E433C454F0FE90E618F000000000120174120174120174020174AE82AF83B3
:2001420090E61474E0F000000000EE4FB40100E433C40354F8FE90E61AF00000000090E6BF
:20016200247402F00000000090E625E4F00000000022E5084509701590E6917482F00000B5
:20018200000090E6497482F000000000227401B50806E4B5090280012290E6497482F00072
:2001A20000000022AE82AF83EE035480FE90E64874064EF00000000022AE82AF8390E698EE
:2001C200EFF0000000007F0090E699EEF0000000002290E6A3E05404FFB40100E433FF3362
:2001E20095E08F82F5832290E6A5E05408FFB40100E433FF3395E08F82F5832285822885B5
:20020200832985F02A7B007CF090E690E0FA790090E691E0F87F0049F52BEF4AF52C7A00B6
:200222007D00C3EA952BED952C502FC3EA9526ED95275026EA2528F8ED3529F9AF2A8B82C5
:200242008C83E0FEA3AB82AC83888289838FF0EE1203EE0ABA00CB0D80C80000000090E6D0
:20026200497482F0852B82852C8322AD82AE83AFF07B007CF879007A00C3E9950AEA950B0F
:2002820050218D828E838FF0120409F8A3AD82AE838B828C83E8F0A3AB82AC8309B900D9A4
:2002A2000A80D6850A82850B830201BBE4FEFFF516F517C007C0061200B1900001120111FD
:2002C20090000112013E120062120075D006D007E4FAFBF524F525C007C006C003C0021262
:2002E20001D4E5828583F0D002D003D006D00745F0607475260A75270090000C75F040C02B
:2003020007C006C003C0021201FE858222858323D002D003D006D007751853AC227D008C1B
:2003220019850C1A850D1BC007C006C003C0021201E9E5828583F0D002D003D006D0074546
:20034200F060E4750A04750B0090001875F040C007C006C003C00212026DD002D003D00609
:20036200D0070ABA00010B0EBE00010FBEA00FBF000C7E007F000516E4B51602051774E87F
:20038200B516077403B5170280030202D975185390E6A3E0FD8D19AC248C1A8A047D008C5B
:2003A2001BC007C006C003C0021201E9E5828583F0D002D003D006D00745F060E4750A0465
:2003C200750B0090001875F040C007C006C003C00212026DD002D003D006D0070524E4B5A7
:0C03E20024020525E4F516F5170202D9E7
:06003500E478FFF6D8FD9F
:200013007900E94400601B7A00900429780175A000E493F2A308B8000205A0D9F4DAF27566
:02003300A0FF2C
:1B03EE0020F71130F6138883A88220F509F6A8837583002280FEF280F5F0220E
:20003B007800E84400600A790175A000E4F309D8FC7800E84400600C7900900001E4F0A3C3
:04005B00D8FCD9FAFA
:0D00060075812C120425E5826003020003C1
:1C04090020F71430F6148883A88220F507E6A88375830022E280F7E49322E02202
:0404250075820022BA
:00000001FF
