:03000000020006F5
:03005F0002000399
:030003000204CA2A
:2000620075B5AA75B00075B20375800175B3FF7590002290E6047480F00000000090E6043F
:200082007482F00000000090E6047484F00000000090E6047486F00000000090E60474883C
:2000A200F00000000090E604E4F0000000002290E6007412F090E60174C0F00000000090C7
:2000C200E60B7403F00000000090E619E4F00000000090E61BE4F000000000758001229056
:2000E200E61A7408F00000000090E609741FF00000000090E670E4F00000000090E60174EB
:2001020003F00000000090E60B7403F00000000075800222AE82AF8390E61274A2F00000F9
:200122000000EE4FB40100E433C454F0FE90E618F00000000022AE82AF8390E61474E0F0DE
:2001420000000000EE4F600B90E61AE4F000000000800A90E61A7408F00000000090E62471
:200162007402F00000000090E625E4F000000000220000000090E6497482F022AE82AF835D
:2001820000000000EE035480FE90E64874064EF022AE82AF8390E698EFF0000000007F0034
:2001A20090E699EEF0000000002290E6A3E05404FFB40100E433FF3395E08F82F583229030
:2001C200E6A5E05408FFB40100E433FF3395E08F82F5832285820A85830B85F00C7B007C9D
:2001E200F090E690E0FA790090E691E0F87F0049F50DEF4AF50E7A007D00C3EA950DED9507
:200202000E502FC3EA9508ED95095026EA250AF8ED350BF9AF0C8B828C83E0FEA3AB82AC9C
:2002220083888289838FF0EE1206290ABA00CB0D80C8120173850D82850E8322AD82AE835F
:20024200AFF07B007CF879007A00C3E9950FEA951050218D828E838FF0120644F8A3AD8206
:20026200AE838B828C83E8F0A3AB82AC8309B900D90A80D6850F8285108302019390E6F52E
:2002820074FFF000000000000000000000000090E6487406F0221200757EE87F03EE24FF2F
:2002A200FCEF34FFFD8C068D07EC4D70F0E5BB30E7FB00000000000000000000000090E63A
:2002C200D07428F000000000000000000000000090E6D1E4F075BB0622AF827E00EE75F04B
:2002E20007A4FCADF02464F582ED3406F583E493FBB5070280080EBE0CE375820022EC247E
:2003020064FCED3406FD74062CF582E43DF583E49390E601F075AF07759DE4759E008C8281
:200322008D83A3E49390E67CF08C828D83A3A3E49390E67CF07401F0E4F0F0F0F0F08C82EB
:200342008D83A3A3A39390E67CF08C828D83A3A3A3A3E49390E67CF07401F0E4F0F0F0F021
:20036200F08C828D83A3A3A3A3A39390E67CF07411F0F0E4F0F0F0F0F0F0F0F0F0F0F0F040
:20038200F07F0090E67CE4F00FBF600040F5758201227E007F0090E6C2E4F090E6C3748073
:2003A200F090E6C0E4F090E6F4F090E6E204F090E61AE4F00000000090E60174C2F000009A
:2003C200000090E60B7403F000000000758003C007C00612027F7582011202DB120298D0B8
:2003E20006D007E4F511F5128E028F03780079008A048B050ABA00010B8CB008B800010926
:20040200C3E894B0E96480948440E58A068B070511E4B511020512C3E51194E8E5126480D6
:20042200948340C412027F1200B190000112013875800122AD82AE83120644FFBF44028015
:2004420011BF47030204C7BF500122BF5302803B22227F007D007E008FB07B787C00EB2437
:20046200FFF9EC34FFFA89038A04E94A70F074402FFF0DBD00010EC3ED94E8EE64809483EC
:2004820040D61200B19000010201381200E175B0A07E007F00E5B020E00575B0A080F6E546
:2004A200B030E00575B0A280F60EBE00010FC3EE9401EF6480948040DC75B0001200B1909B
:2004C2000001020138020394E4FEFFF51FF520C007C0061200B1900001120116900001128E
:2004E2000138120062D006D007E4FAFBF52DF52EC007C006C003C0021201ACE5828583F052
:20050200D002D003D006D00745F070030205A475080A75090090001575F040C007C006C098
:2005220003C0021201D685822B85832CD002D003D006D007752153AC2B7D008C22851523AB
:20054200851624C007C006C003C0021201C1E5828583F0D002D003D006D00745F060E47555
:200562000F0475100090002175F040C007C006C003C00212023ED002D003D006D0070ABA11
:2005820000010B852B13852C1490001575F040C007C006C003C002120436D002D003D006A2
:2005A200D0070EBE00010FBEA00FBF000C7E007F00051FE4B51F02052074E8B51F077403A0
:2005C200B5200280030204F275215390E6A3E0FD8D22AC2D8C238A047D008C24C007C00669
:2005E200C003C0021201C1E5828583F0D002D003D006D00745F060E4750F047510009000D9
:200602002175F040C007C006C003C00212023ED002D003D006D007052DE4B52D02052EE44B
:07062200F51FF5200204F2B0
:20066400308000030000EA1E8000030000AA180100020110CA100101020010CA0C02010299
:200684000010CA080302020010CA040605020010CA020C0B020010CA011817020010CA3275
:1406A400302F020010CA147877020010CA0AF0EF020010CA63
:06003500E478FFF6D8FD9F
:200013007900E94400601B7A009006B8780175A000E493F2A308B8000205A0D9F4DAF275D5
:02003300A0FF2C
:1B06290020F71130F6138883A88220F509F6A8837583002280FEF280F5F022D0
:20003B007800E84400600A790175A000E4F309D8FC7800E84400600C7900900001E4F0A3C3
:04005B00D8FCD9FAFA
:0D00060075812F120660E582600302000381
:1C06440020F71430F6148883A88220F507E6A88375830022E280F7E49322E022C5
:04066000758200227D
:00000001FF
